:1000000012308A00B62A0000FF00030E8301A1000F
:100010000A08A0008A010408A2007708A300780853
:10002000A4007908A5007A08A60003170D08031399
:10003000A70003170F080313A80003170C080313E6
:10004000A90003170E080313AA00831383128C3030
:100050008400001C2D280C1852288B1E31280B19E7
:100060005528220884002308F7002408F8002508F2
:10007000F9002608FA00270803178D000313280843
:1000800003178F000313290803178C0003132A0892
:1000900003178E00031320088A00210E8300FF0E31
:1000A0007F0E09008A110A1258288A110A127C2828
:1000B0008E010B308F00DC308E000000C20A031965
:1000C000C30AC40A0319C50A4408283C031D6F2843
:1000D000C508031D6F280230AD06C501C4014208E2
:1000E0000A3C031D7828C308031D7828C301C201F8
:1000F0000C108A110A12312864308100C60A0319D3
:10010000C70A0B118A110A123128EF2100002500BD
:1001100094138C1103176308031393000230941B8C
:1001200098288316141992280030111B013083126D
:10013000F80008008316111411189C28D03083127F
:100140000317E3000313882071080317E300031368
:10015000882072080317E300031388208316111503
:100160001119B028831208001413831691159119E0
:10017000B72877189112771C91161116111ABE28FC
:1001800083121308F80008000730F1009030F200E5
:100190009A20F101831611141118CC28D030831243
:1001A0000317E3000313882071080317E300031308
:1001B0008820831691149118DB28D13083120317FD
:1001C000E30003138820F701B4207808EF008316BA
:1001D00011151119E92883126F088039F000F00811
:1001E0000319F728EF13F1016F08F2009A208A1122
:1001F0000A16FA2A393084008317000803190D29DA
:100200000630F800F701F70B0329F80B02297B30C1
:10021000F700F70B0929800B002908000317610874
:1002200003132C0404380317E2008316031311147C
:10023000111818294E3083120317E3000313882086
:1002400003176208E30003138820831611151119A0
:1002500027292A292B290000831203176108031379
:100260002C040317E2008316031311141118362906
:100270004E3083120317E30003138820031762082C
:10028000E3000313882083161115111945295330F3
:10029000F700F70B49298312080003175D08F039AE
:1002A000E100DE08031956290130572900306104A6
:1002B000DF005D0EF700F030F7057708F039E10058
:1002C000DE08031965290130662900306104E00069
:1002D0005F08E10003130E2103176008E100031318
:1002E0000E21080001300317DD00DE0103134D214C
:1002F00002300317B9000313FA2008003230031745
:10030000B9000313FA2030300317E10003130E2164
:1003100005300317B9000313FA2030300317E1004A
:1003200003130E21A630F700F70B9429000030309C
:100330000317E10003130E2105300317B90003135F
:10034000FA2020300317E10003130E212830031791
:10035000DD00DE0103134D210C300317DD00DE014B
:1003600003134D2106300317DD00DE0103134D2179
:1003700072218A110A16FD2AEF080319C2290830D2
:10038000AC00C329AC01831611141118C5294E30D5
:1003900083120317E300031388202C080317E300DC
:1003A00003138820831611151119D42983128A1179
:1003B0000A162A2B03175908003A03130319EA29CE
:1003C000013A0319EE29033A0319F329013A0319F3
:1003D000F829FE2903175A08DB00012A40300317C9
:1003E0005A07DB00012A143003175A07DB00012AE1
:1003F000543003175A07DB00012A031303175A0866
:10040000DB005B088038DC00DD00DE0103134D21DA
:10041000080003175A08FA005908840083137A1851
:100420008317800803192E2A5A08FA005908D90A96
:100430000319DA0A840083137A1883170008DB0093
:100440005B08DC005C08DD000130DE0003134D2199
:100450002130F700F70B2A2A092A03170313080093
:100460007C08FD000310FD0C7830FD057D0CF700C5
:10047000F70C3F30F70577087D07FE007C080F3941
:100480007E07F800080083160108C039063881008D
:100490006430831281008B168A110A16772CFD01B5
:1004A000FE017E08073C031C792A8316061483127A
:1004B000061C552A3130F700F70B5C2A5F2A831699
:1004C00006148312061C772A7E08073CF8000130C8
:1004D000F700F8080319702A0310F70DF80B6C2ABF
:1004E0007708FD048316061483120618722AFE0A82
:1004F000512A7D08F80008008E30F70003175308D2
:10050000F8005208F900FA01F808031D912A790849
:10051000F800F9010830F702F808031D912AF701E5
:10052000992A0310F81B982AF90DF80DF703912A60
:10053000F81303130800831620080319612BAC007D
:1005400024080319612BAC02031CAB2A7F30AC07D3
:100550000318612BB12A8130AC02031C612B0319F3
:10056000612B2C08F700F801F901FA01AB01210811
:10057000AA00AA172208A9002308A8001930AC0075
:100580002708A8020318D42A0130A9020318D42A84
:10059000AA020318D42AAB020318D42AAB0AAA0A67
:1005A000A90A2708A807062B2608A9020318EF2A7C
:1005B0000130AA020318EF2AAB020318EF2AAB0A94
:1005C000AA0A2608A9072708A807031C062BA90AB8
:1005D000031D062BAA0A031D062BAB0A062B2508B2
:1005E0008038AA020318052B0130AB020318052B33
:1005F000AB0A25088038AA072608A907031CE32AA6
:10060000AA0A031DE32AAB0AE32A7A14AC0B092BCE
:10061000142B0310A80DA90DAA0DAB0D0310FA0D94
:10062000F90DF80DAD0DC02A2D1C1C2B0310F80C74
:10063000F90CFA0CAD0C1F2BF7030319612BAD1B42
:10064000482B0310A80DA90DAA0DAB0D2708A80271
:100650000318342B0130A9020318342BAA02031803
:10066000342BAB02031C572B2608A90203183F2B7F
:100670000130AA0203183F2BAB02031C572B25089D
:100680008038AA020318482B0130AB02031C572BF9
:10069000FA0A031D572BF90A031D572BF80A031DED
:1006A000572BF70A0319612BF80CF90CFA0C2108E7
:1006B000AC002508AC06AC1F5F2BF817652BF813B0
:1006C000652BF701F801F901FA018312080083167E
:1006D000061006108312061012300317B900031318
:1006E000FA2083160610831206143130F700F70B38
:1006F000772B7A2B83160614FD0106148312061835
:10070000882BFD0A832B842B000083167D2B8312FC
:10071000FD01831606148312061C932BFD0A902BF1
:10072000912B0000892B0130F800F80803190B2CDD
:100730004F227808EF004F227808F0004F22780807
:10074000F1004F227808F2004F227808F300700879
:100750006F07710772077302031D0B2CFE016F08F0
:10076000FD00FE00FD017D087004F4007E08F50028
:1007700071087F39FE01FD00FE00FD017D08720455
:10078000FB007E08FC0075080317D3007408D20034
:1007900003137C227A088316A3007908A200780844
:1007A000A1007708A000A701A6012030A500823093
:1007B000A40083129B227A08B5007908B400780857
:1007C000B3007708B2007C080317D3007B08D2007F
:1007D00003137C227A088316A3007908A200780804
:1007E000A1007708A000A701A6012030A500823053
:1007F000A40083129B227A08B1007908B00078081F
:10080000AF007708AE00F11F082C2F08803AAF0028
:100810000130F8000D2C0030F800080036083D02C9
:10082000031D1A2C37083E02031D1A2C38083F02FC
:1008300003192D142D1C302CAD1C272C83160512EA
:100840008312051683160910831209102F2C8316A4
:100850000512831205128316091083120914382C0D
:1008600083160910831209148316051283120512C8
:100870008A110A168A2C031756080319AC2CDE00BD
:100880005A080319AC2CDE0703184D2C7F30DE020A
:10089000031CAC2C0319AC2C512C8130DE0703183F
:1008A000AC2C5E08F700F801F901FA015708E200E4
:1008B000E2175808E1005908E0001830DE00DF01B7
:1008C000601C7A2C5D08FA07031C6C2CF90A031DC6
:1008D0006C2CF80A0319DF175C08F907031C732C4A
:1008E000F80A0319DF175B08D800D8175808F8076B
:1008F0000318DF17DF0DF80CF90CFA0CE20CE10C11
:10090000E00C0310DE0B5F2C0130F7070318AC2C52
:10091000F81B912CE20DFA0DF90DF80DF7030319F0
:10092000AC2CE21FA22CFA0A031DA22CF90A031D0B
:10093000A22CF80A031DA22CF80CF90CFA0CF70AE9
:100940000319AC2C5708DF005B08DF06DF1FAA2C59
:10095000F817B02CF813B02CF701F801F901FA01DF
:10096000031308008318B72CB03084008313F701F9
:10097000F801F901FA018316B001B101B201B30126
:100980002F082E042D042C040319F62C2030B4005B
:100990000310A80DA90DAA0DAB0DB00DB10DB20D30
:1009A000B30D2F083302031DDF2C2E083202031D66
:1009B000DF2C2D083102031DDF2C2C083002031C14
:1009C000F02C2C08B0022D08031C2D0FB1022E08AC
:1009D000031C2E0FB2022F08031C2F0FB3020314A7
:1009E000F70DF80DF90DFA0DB40BC82C3008800086
:1009F000840A31088000840A32088000840A33089F
:100A00008000831208008316061383120613083031
:100A1000F8000A2D0000F8171D2DF8138316A80CF6
:100A2000831203180617031C061378171D2D78135D
:100A3000F80B0E2D1B2D00000617A7308400840B29
:100A40001F2D222DF81B0D2D781B172D08000408D3
:100A50008316A0007308A20003194D2D720883129B
:100A60000317D9007108D8007008D70003136F0866
:100A70000317D600DD01DC012030DB008230DA0014
:100A800003133B247A08F2007908F1007808F0009B
:100A90007708EF008316A20B2E2D7208AB007108A9
:100AA000AA007008A90083126F088316A8002808FE
:100AB000B63CA800FA012908AC00A9170310A90C3C
:100AC000AA0CAB0CFA0CF90CF80CF70CA80B5E2D69
:100AD000AC1F752DF709F809F909FA09F70A031986
:100AE000F80A0319F90A0319FA0A7A08F2007908D0
:100AF000F1007808F00077088312EF00F21F8F2DC5
:100B00008316A003A0168312EF09F009F109F20978
:100B1000EF0A0319F00A0319F10A0319F20A3B302C
:100B20008316A7009A30A600CA30A500A4010A3097
:100B3000A20073080319A00A83146F308400831382
:100B40007208AB007108AA007008A90083126F0830
:100B50008316A8002708AF002608AE002508AD00C0
:100B60002408AC008312B2247808F708031DCF2DA7
:100B7000730A83162202031DBF2D8312CF2D200876
:100B80000319D22D0F3922020319C82D03180A2E7A
:100B9000A01B0A2E201BD22D2030042E83122030C1
:100BA0008316A005A01EE22DA0127308031DA0034A
:100BB0007708A0002D30A800831203258316200893
:100BC000F700A00173082202031DF22D7708A00090
:100BD0002E30A8008312032583162008F70020304A
:100BE000A00500303030A01E042EA0127308031D93
:100BF000A0037708A0002D30A800831203258316D8
:100C00002008F700A0013030F7077708A80083120A
:100C10000325831683102708AB002608AA002508A1
:100C2000A9002408A800AF01AE01AD010A30AC0054
:100C30008312B2247A088316A7007908A6007808E0
:100C4000A5007708A400A20B9C2D831208000317AF
:100C50005E08F8015D020318302E5D08F7003C2E97
:100C6000F7010830DF00DD0DF70D5E08770203188D
:100C7000F700F80DDF0B332E031308002030701E31
:100C80003030F1006F08F700EF1F4E2EF709F70A1A
:100C90007708EF002D30F100F01770146F0803177C
:100CA000DD006430DE00031327267708EF003030C4
:100CB0007807F2006F080317DD000A30DE00031327
:100CC000272630307707F40030307807F3007108BA
:100CD000F700303072020319712EF014F01B7015FA
:100CE000852E7019852E7108F200F0187C2E303098
:100CF000730203197F2E7014F01BF014852E031D50
:100D00007014031D852E7208F30070198C2EF018D4
:100D1000912E7018962E9B2E71088316A8008312B0
:100D2000032572088316A80083120325730883160F
:100D3000A8008312032574088316A80083120325D4
:100D400008004908840083134A18831703176408AE
:100D50008000840A80010313C90A0319CA0A080023
:100D6000780803175B08DD006430DE0003132726D4
:100D700077080317DB0078083030031DC62EDC1C13
:100D8000CF2EDC19CF2E5C1A2030C92EDC115C125C
:100D90005C14F8077808E4000313A12603175B0826
:100DA000DD000A30DE000313272677080317DB0077
:100DB00078083030031DE22EDC19E82E5C1CE82E8A
:100DC0005C1A2030F8077808E4000313A126031703
:100DD0003030DB075B08E4000313A12608008E30E7
:100DE000F70003175208F7025308F9005408F800F7
:100DF000F917F7080319072F0310F908031D032F2C
:100E0000F8080319072FF90CF80CF70BFC2ED31F69
:100E10000E2FF809F909F80A0319F90A0313080053
:100E200020300317531E3030D4005208F700D21F71
:100E3000212FF709F70A7708D2002D30D400D317F5
:100E400053145208DD006430DE00031327267708B0
:100E50000317D20030307807D5005208DD000A3081
:100E6000DE0003132726303077070317D700303012
:100E70007807D6005408F700303055020319442F84
:100E8000D314D31B5315582F5408D5002030D40049
:100E9000303056020319502F5314D31BD314582F3C
:100EA000031D5314031D582F5508D6002030D500BC
:100EB00053195F2FD318642F5318692F6E2F5408BE
:100EC000E4000313A12603175508E4000313A12629
:100ED00003175608E4000313A12603175708E4007C
:100EE0000313A126080003173C08DD000130DE00D3
:100EF00003134D212130F700F70B7C2F08000B085E
:100F00000317B90003138B13831603178C170C14E4
:100F1000000000008312B91F902F03138B170317D3
:100F20000C087F390319CD2FB9000D08BA000F083E
:100F3000BB003908BC000313732703173A088D0060
:100F40003B088F0003130B080317BC0003138B131C
:100F5000831603178C170C14000000008312BC1FAB
:100F6000B42F03138B1703170C0D0E0D7F390319C4
:100F7000CD2FB9000D08BA000F08BB003908BC001E
:100F80000313732703173A088D003B088F008D0A5F
:100F900003198F0A03137F2F031703130800F801A7
:100FA000F901F701FA0103173E08031DDA2F3D0886
:100FB0000319F42F1030BF000310BB0DBC0DF70D4B
:100FC000FA0D3E087A02031DE72F3D087702031C45
:100FD000F02F3D08F702031CFA033E08FA0203143F
:0C0FE000F80DF90DBF0BDC2F0313080007
:1010000003173E08D5003D08D4003C08D3003B0838
:10101000D2008A110313EF268A1578080317C0003F
:10102000D3014008D2008A1103137C228A1583144D
:1010300003173E08D5003D08D4003C08D3003B0808
:10104000D2007A08D9007908D8007808D700770844
:10105000D60080308318D706DC01DD015308DB00A1
:101060005708DB06520803191A29DA00F700560858
:1010700003192329DA020319BF28031840287D2801
:101080005708E000E0175808DF005908DE00DD01CE
:101090000310E00CDF0CDE0CDD0CDA0B4728DB1F45
:1010A00054285C1437295C105A105C1655308400A3
:1010B00083174D295C12DB1B67285A1C7228E00C31
:1010C000DF0CDE0CDD0CF70A031932297228E01B55
:1010D00075280310DD0DDE0DDF0DE00DF70303199C
:1010E000322967285C17DF285C135308DB00DB1FFD
:1010F0007B28E0172B29E0132B295608DA00F7008C
:101100005208DA025308E000E0175408DF005508DF
:10111000DE00DD010310E00CDF0CDE0CDD0CDA0B71
:101120008928DB1F9628DC143729DC105A10DC16BE
:101130005930840083174D29DC12DB1BA9285A1C67
:10114000B428E00CDF0CDE0CDD0CF70A03193229A1
:10115000B428E01BB7280310DD0DDE0DDF0DE00D18
:10116000F70303193229A928DC17DF28DC135708F5
:10117000DB00DB1FBD28E0172B29E0132B295708C4
:10118000E000E0175808DF005908DE00DB1FCC281C
:10119000E0135C1537295C11DD015A1055308400CD
:1011A00083174D29DB1BF5285308DB005A1CDF2869
:1011B000E00CDF0CDE0CDD0CF70A03193229DD1F11
:1011C000F028DE0A031DF028DF0A031DF028E00ADC
:1011D000031DF028E00CDF0CDE0CF70A031932299E
:1011E0005C1B7428DC1BB62814298030E006E01F45
:1011F000FD2837295708DB000A295308DB00E008DF
:10120000031D0A29DF08031D0A29DE08031D0A2918
:10121000F7012B29E01B14290310DD0DDE0DDF0D76
:10122000E00DF70B0A293229DB1F1829E0172B29BB
:10123000E0132B295608F7005708E0005808DF0094
:101240005908DE002B295208F7005308E000540823
:10125000DF005508DE006008F8005F08F9005E084E
:10126000FA006C29F701F801F901FA016C29DD0196
:10127000DE09DF09E009DD09DD0A031D4629DE0A72
:10128000031D4629DF0A031D4629E00A5C1853287E
:10129000DC1895285C19CB28FA280008DE07031C07
:1012A0005729DF0A031D5729E00A03195A1484033A
:1012B0000008DF07031C5F29E00A03195A1484039E
:1012C0000008801B6429803AE00703185A145C1A4E
:1012D0005A28DC1A9C28D2287A08D5007908D4002C
:1012E0007808D3007708D2005508D9005408D800F0
:1012F0005308D7005208D600DD01DC012030DB00A6
:101300008230DA008A1103133B248A157A08031706
:10131000D5007908D4007808D3007708D2008A1164
:101320000313EF268A1578080317C1003F08D90078
:10133000DA018A110313DA218A1503173A08DA0051
:101340003908D9008A11031309228A150130CA000D
:101350004230C90003174008D2001830D3008A1168
:10136000031310278A152E300317E4008A11031384
:10137000A1268A1503174108D2001830D3008A111C
:10138000031310278A1503173F08D9000A30DA0023
:101390008A110313DA218A1501300317DA0042306B
:1013A000D9008A11031309228A15080083168814AC
:1013B00083128818F12914300317B9008A11031316
:1013C000FA208A158316881483128818F1298A1145
:1013D00072218A15C80AC001831688148312881CDA
:1013E000EC29C808031D4C2A4C308316A000653038
:1013F000A1002030A2004430A3007530A400793051
:10140000A5002030A6004230A7006130A8006F3050
:10141000A900AA014E30AB006730AC007530AD00BA
:101420007930AE006530AF006E30B0002030B100D2
:101430004430B2007530B3007930B4002030B500CC
:101440004330B6007530B7006F30B8006E30B90069
:101450006730BA00BB0183120317D901DA018A1180
:101460000313DA218A150317DA01A030D9008A1193
:10147000031309228A1501300317D900DA018A11F2
:101480000313DA218A150317DA01AB30D9008A1168
:10149000031309228A15FD2F480BBF2A36080317AC
:1014A000B900031337080317BA00031338080317EA
:1014B000BB0001300313CA003C30C90003173908D0
:1014C000DB000130DC008A110313B0268A153A30A4
:1014D0000317E4008A110313A1268A1503173A089B
:1014E000DB000130DC008A110313B0268A153A3084
:1014F0000317E4008A110313A1268A1503173B087A
:10150000DB000130DC008A110313B0268A1552304B
:101510000317CD006530CE006130CF006C30D000B5
:101520002030D1007430D2006930D3006D30D40047
:101530006530D5003A30D600D701D901DA018A11D9
:101540000313DA218A1501300317DA004D30D90070
:101550008A11031309228A1501300317D9000530B7
:10156000DA008A110313DA218A1501300317DA0031
:101570003C30D9008A11031309228A15FD2F48082F
:10158000023C031DA12B3A080317B90003133B08C3
:101590000317BA00BC0103133C080317BB00D0308B
:1015A0003B07D9003C08DA00073003180830DA0797
:1015B00001300313CA003D30C90003173908DB00AE
:1015C0000130DC008A110313B0268A152F3003176F
:1015D000E4008A110313A1268A1503173A08DB00D9
:1015E0000130DC008A110313B0268A152F3003174F
:1015F000E4008A110313A1268A1509308400031719
:101600005A08DC005908DB00E3010408E20063101B
:10161000831B63145C0EF038DE00DE07E23EDF0061
:10162000323EE1005C080F39DF07DF07E107E93EE2
:10163000E000E007E0075B0E0F39E007E107E00D8F
:10164000E10DE109E10D5B080F39E107DE0D07301F
:10165000DD000A30E107E003031C2A2BE007DF036B
:10166000031C2E2BDF07DE03031C322BDE07DD03FA
:10167000031C362B5D30840083170730620562132C
:10168000840761300402031962170008F700031D84
:10169000512B621B512B621A672BE219512B203000
:1016A000542BE21562123030F707DC010408DB002E
:1016B0005C10831B5C147708E4008A110313A126D5
:1016C0008A1503175B08840083135C188317840A48
:1016D000621F412B5230CE006530CF006130D00008
:1016E0006C30D1002030D2006430D3006130D4009F
:1016F0007430D5006530D6003A30D700D801D90112
:10170000DA018A110313DA218A1501300317DA008E
:101710004E30D9008A11031309228A1501300317AC
:10172000D9000230DA008A110313DA218A15013058
:101730000317DA003D30D9008A11031309228A15F4
:10174000FD2F4808033C031D1E2C4E308316BC00A1
:101750006830BD006930BE006530BF007430C00025
:101760002030C1004430C2006F30C3003A30C400A2
:101770002030C500C60183120317BA01BC30B9007E
:10178000031331080317BE00031330080317BD000D
:1017900003132F080317BC0003132E080317BB0005
:1017A000BF01031300200317D9010E30DA008A119C
:1017B0000313DA218A15853003178D0000308F005E
:1017C0008A1103137F278A154430EF006F30F00031
:1017D0002030F1006130F2006D30F3003A30F40057
:1017E0002030F500F6010317BA016F30B90003137A
:1017F00035080317BE00031334080317BD00031395
:1018000033080317BC00031332080317BB00013071
:10181000BF000313002001300317D9000E30DA0097
:101820008A110313DA218A15873003178D000030DF
:101830008F008A1103137F278A15FD2F4808043C67
:10184000031D102D0317D901DA018A110313DA21C0
:101850008A1553308316C7006530C8007430C9003C
:101860002030CA007430CB006930CC006D30CD0020
:101870006530CE003A30CF00D00183120317DA0171
:10188000C730D9008A11031309228A1501300317C2
:10189000D900DA018A110313DA218A15400B5F2C73
:1018A0002D195F2C2030FB00FC00FD010317DA012D
:1018B0007B30D9008A11031309228A15872C360838
:1018C0000317DD000A30DE008A11031327268A156C
:1018D000303078078316EE0083120317BC008A119C
:1018E000031373278A1536080317DD000A30DE005C
:1018F0008A11031327268A15303077078316EE00E6
:1019000083120317BC008A11031373278A153A3018
:101910000317BC008A11031373278A154008023C81
:10192000031DA32C2D19A32C20308316D100D20027
:10193000D30183120317DA01D130D9008A110313BE
:1019400009228A15CB2C37080317DD000A30DE0088
:101950008A11031327268A15303078078316EE0084
:1019600083120317BC008A11031373278A153708E3
:101970000317DD000A30DE008A11031327268A15BB
:10198000303077078316EE0083120317BC008A11EC
:10199000031373278A153A300317BC008A11031307
:1019A00073278A154008033C031DE72C2D19E72CEB
:1019B00020308316D400D500D60183120317DA0134
:1019C000D430D9008A11031309228A150F2D380843
:1019D0000317DD000A30DE008A11031327268A155B
:1019E000303078078316EE0083120317BC008A118B
:1019F000031373278A1538080317DD000A30DE0049
:101A00008A11031327268A15303077078316EE00D4
:101A100083120317BC008A11031373278A15FD2F45
:101A20004808053C031DB42E0317D901DA018A11B9
:101A30000313DA218A1553308316D7006530D80096
:101A40007430D9002030DA006430DB006130DC0013
:101A50007430DD006530DE003A30DF00E0018312D3
:101A60000317DA01D730D9008A11031309228A1526
:101A700001300317D900DA018A110313DA218A151C
:101A8000400B532D2D19532D20308316E100E20019
:101A9000E30183120317DA01E130D9008A1103133D
:101AA00009228A157B2D3A080317DD000A30DE0073
:101AB0008A11031327268A15303078078316EE0023
:101AC00083120317BC008A11031373278A153A087F
:101AD0000317DD000A30DE008A11031327268A155A
:101AE000303077078316EE0083120317BC008A118B
:101AF000031373278A152F300317BC008A110313B1
:101B000073278A154008023C031D972D2D19972D28
:101B100020308316E400E500E60183120317DA01A2
:101B2000E430D9008A11031309228A15BF2D3B081E
:101B30000317DD000A30DE008A11031327268A15F9
:101B4000303078078316EE0083120317BC008A1129
:101B5000031373278A153B080317DD000A30DE00E4
:101B60008A11031327268A15303077078316EE0073
:101B700083120317BC008A11031373278A152F30B1
:101B80000317BC008A11031373278A154008033C0E
:101B9000031DDD2D2D19DD2D20308316E700E80013
:101BA000E900EA00EB0183120317DA01E730D900FC
:101BB0008A11031309228A15B32ED0303C078316ED
:101BC000EC000730ED000318ED0A6D0883120317CF
:101BD000BC00831603136C0883120317BB00033089
:101BE000BE00E830BD008A110313CF278A1579089B
:101BF0008316EF007808EE006F0883120317BC000D
:101C0000831603136E0883120317BB00BE010A304C
:101C1000BD008A110313CF278A1577088316EE00BB
:101C20007A08EF003030EE070318EF0A6E088312CF
:101C30000317BC008A11031373278A1583166D08D6
:101C400083120317BC00831603136C088312031757
:101C5000BB00BE016430BD008A110313CF278A1573
:101C600079088316EF007808EE006F0883120317D7
:101C7000BC00831603136E0883120317BB00BE015A
:101C80000A30BD008A110313CF278A1577088316FF
:101C9000EE007A08EF003030EE070318EF0A6E0806
:101CA00083120317BC008A11031373278A15831646
:101CB0006D0883120317BC00831603136C0883128C
:101CC0000317BB00BE010A30BD008A110313CF27E2
:101CD0008A1579088316EF007808EE006F088312E2
:101CE0000317BC00831603136E0883120317BB008F
:101CF000BE010A30BD008A110313CF278A15770869
:101D00008316EE007A08EF003030EE070318EF0A72
:101D10006E0883120317BC008A11031373278A15F8
:101D200083166D0883120317BC00831603136C0817
:101D300083120317BB00BE010A30BD008A110313D2
:101D4000CF278A1577088316EE007A08EF00303027
:101D5000EE070318EF0A6E0883120317BC008A11FE
:101D6000031373278A15FD2F4808063C031DF92F1E
:101D70000317D901DA018A110313DA218A154230D7
:101D800003179000413091004F30920020309300B3
:101D900054309400483095005530960043309700F9
:101DA0003A30980099010130DA001030D9008A11D8
:101DB000031309228A15400BF62E2D19F62E20301A
:101DC00003179A009B009C009D01D9010A30DA009C
:101DD0008A110313DA218A1501300317DA001A3049
:101DE000D9008A11031309228A152E2F0317D9014E
:101DF0000A30DA008A110313DA218A152D1C172FF5
:101E00004F3003179E004E309F00A001D9010A30C9
:101E1000DA008A110313DA218A1501300317DA0078
:101E20001E30D9008A11031309228A152E2F4F3034
:101E30000317A1004630A200A300A401D9010A3073
:101E4000DA008A110313DA218A1501300317DA0048
:101E50002130D9008A11031309228A150130031792
:101E6000D900DA018A110313DA218A154008023CED
:101E7000031D4A2F2D194A2F20300317A500A60055
:101E8000A7010130DA002530D9008A110313092295
:101E90008A15722F3D080317DD000A30DE008A1113
:101EA000031327268A15303078078316EE00831235
:101EB0000317BC008A11031373278A153D08031703
:101EC000DD000A30DE008A11031327268A15303020
:101ED00077078316EE0083120317BC008A110313E1
:101EE00073278A153A300317BC008A11031373272E
:101EF0008A154008033C031D8D2F2D198D2F20308E
:101F00000317A800A900AA010130DA002830D9007F
:101F10008A11031309228A15B52F3E080317DD0025
:101F20000A30DE008A11031327268A15303078071D
:101F30008316EE0083120317BC008A110313732764
:101F40008A153E080317DD000A30DE008A110313EC
:101F500027268A15303077078316EE008312031781
:101F6000BC008A11031373278A153A300317BC008B
:101F70008A11031373278A154008043C031DD02FD0
:101F80002D19D02F20300317AB00AC00AD0101306C
:101F9000DA002B30D9008A11031309228A15F82F91
:101FA0003F080317DD000A30DE008A1103132726DD
:101FB0008A15303078078316EE0083120317BC00B1
:101FC0008A11031373278A153F080317DD000A30AF
:101FD000DE008A11031327268A153030770783160F
:101FE000EE0083120317BC008A11031373278A15AE
:101FF000FD2F4808073C0319C8018A110A16F22D63
:102000007B08013A03192628023A03192628063AC2
:1020100003192628023A031926280F3A03192628FD
:10202000023A03192628063A03192628083A031902
:102030002928023A031929280F3A03192928023AB4
:1020400003192928093A03192C2872281F30F8008F
:1020500075281E30F80075287C0803398316A00007
:10206000A101A008031D4F28A108031D4F287D08CA
:1020700083120317BC007C08BB00BE016430BD00A6
:102080000A120313CF270A1677088316A0007A08CE
:10209000A100A008031D6828A108031D68287D0869
:1020A00083120317BC007C08BB000130BE009030D7
:1020B000BD000A120313CF270A1677088316A00063
:1020C0007A08A100A008031D6E28A108031D6E2830
:1020D0001D30F80083127528722883161C30F80012
:1020E000831275281E30F800752808007C08FD0052
:1020F000FE017D08093C031882280A30FD021030D9
:10210000FE0785287D08FE07862879287E08F800C6
:102110000800C00803199528C10A4108143C031D92
:1021200095280A30C1000430AD06AD1D8E2A2B144F
:102130002B0883168700831207183C29C1012D1133
:10214000AD1101304002FC3E03183C29043EA62A92
:102150004808043C031DB228B60A3608173C031C85
:10216000B601D0284808053C031DCE28BA0AD03055
:102170003C07F5000730F6000318F60A3B08FB00A1
:102180007608FD007508FC0000207808EF003A088A
:102190006F020318CD280130BA00D0282D182D1059
:1021A0003C294808043C031DDB28B70A37083B3CA0
:1021B000031CB70102294808053C031DFD28BB0A82
:1021C0003B080C3C0318E6280130BB00D0303C072C
:1021D000F5000730F6000318F60A3B08FB00760806
:1021E000FD007508FC0000207808F0003A08700235
:1021F0000318FC287008BA000229BD0A3D08173CE4
:10220000031CBD013C294808043C031D0D29B80AE4
:1022100038083B3C031CB80132294808053C031D23
:102220002D29BC0A3C08633C031CBC01D0303C0790
:10223000F5000730F6000318F60A3B08FB007608A5
:10224000FD007508FC0000207808F1003A087102D2
:1022500003182C297108BA003229BE0A3E083B3CFB
:10226000031CBE013C294808063C031D3C29BF0A4B
:102270003F083B3C031CBF01AB142B0883168700AF
:1022800083128718DD29C1012D11AD1101304002E3
:10229000FC3E0318DD29043EAE2A4808043C031D19
:1022A0005729B603360F56291730B6007429480847
:1022B000053C031D7229BA03D0303C07F5000730F6
:1022C000F6000318F60A3B08FB007608FD007508C7
:1022D000FC0000207808F200BA08031D712972087A
:1022E000BA0074292D182D10DD294808043C031D5F
:1022F0007F29B703370F7E293B30B700A329480851
:10230000053C031D9E29BB0B87290C30BB00D03038
:102310003C07F5000730F6000318F60A3B08FB00FF
:102320007608FD007508FC0000207808F3003A08E4
:10233000730203189D297308BA00A329BD033D0F3A
:10234000A3291730BD00DD294808043C031DAE2930
:10235000B803380FAD293B30B800D3294808053CF5
:10236000031DCE29BC033C0FB7296330BC00D0301D
:102370003C07F5000730F6000318F60A3B08FB009F
:102380007608FD007508FC0000207808F4003A0883
:1023900074020318CD297408BA00D329BE033E0F76
:1023A000D3293B30BE00DD294808063C031DDD294A
:1023B000BF033F0FDD293B30BF002B152B088316D1
:1023C0008700831207198D2AC1012D11C00AAD1192
:1023D0004008043C031D852A4808043C031D3A2A92
:1023E000C0013608F5003708F6003808FB00FB137B
:1023F0003F30F505831611141118FC29D0308312D3
:102400000317E3000A12031388200A160317E301D7
:102410000A12031388200A167B08FC00762078082D
:10242000FC000317E3000A12031388200A1676083B
:10243000FC0076207808FC000317E3000A1203135F
:1024400088200A167508FC0076207808FC0003171F
:10245000E3000A12031388200A1690300317E300E2
:102460000A12031388200A16831611151119362A29
:10247000842A83124808053C031D852AC0013A08B6
:10248000F5003B08F6003C08FB00831611141118F8
:10249000472AD03083120317E3000A12031388205F
:1024A0000A1604300317E3000A12031388200A16E1
:1024B0007508FC0076207808FC000317E3000A1278
:1024C000031388200A167608FC0076207808FC00A2
:1024D0000317E3000A12031388200A167B08FC0086
:1024E00076207808FC000317E3000A120313882003
:1024F0000A1690300317E3000A12031388200A1605
:10250000831611151119822A83124008053C031DF8
:102510008D2A4808063C0319C001A32A2B152B0855
:10252000831687008312071DA32A2B142B088316FA
:1025300087008312071CA32AAB142B08831687007D
:1025400083128718AD158A110A16F52D0A108A1400
:102550000A118207A828D128032933290A108A14CE
:102560000A1182074D297529A429D42903081F3986
:102570008300FF30AB00AB152B0883168700831256
:102580002B162B08831687003130930028308312D6
:102590009400831694171413061383120617AD10B4
:1025A000B101B001AF01AE01B501B401B301B20197
:1025B000C001C1012D11AD15C301C201C501C40186
:1025C000C701C601C801CA01C9018316031709085A
:1025D000C039890003131F129F12003003178800AF
:1025E0008312870188018901831308300313AC002B
:1025F0000A12C4280A160A127E290A16831603171D
:102600000908C039890003131F129F1200300317F5
:1026100088008130031386001F3087008312AB00CF
:10262000023083168800C030850009108910091116
:10263000891183123608BD003708BE000A303802FF
:10264000BF002D10AD100A1272210A160130EF00E2
:102650000A12BC290A162030CB00CC00CD00533022
:10266000CE005430CF004130D0005230D100543031
:10267000D2002030D300D401D500D600D70044309A
:10268000D8004F30D9002030DA004130DB004E3026
:10269000DC002030DD003130DE002030DF00E001E2
:1026A0000317D901DA010A120313DA210A160317F4
:1026B000DA014B30D9000A12031309220A1601303D
:1026C0000317D900DA010A120313DA210A160317D5
:1026D000DA015530D9000A12031309220A16043010
:1026E000EF00FA300317B9000A120313FA200A1692
:1026F000EF0B712B8316111411187C2BD030831221
:102700000317E3000A12031388200A160330031785
:10271000E3000A12031388200A16831611151119F3
:102720008F2B11141118922BD13083120317E30051
:102730000A12031388200A160130F7000A12B42087
:102740000A167808EF00FC000A1230220A167808F0
:10275000B9000130F7000A12B4200A167808EF0019
:10276000FC000A1230220A167808BA000130F7007D
:102770000A12B4200A167808EF00FC000A12302270
:102780000A167808BB00F7010A12B4200A16780866
:10279000EF00FC000A1230220A167808BC008316EB
:1027A00011151119D12B11141118D42BD0308312FB
:1027B0000317E3000A12031388200A160317E30124
:1027C0000A12031388200A16831691149118E62B17
:1027D000D13083120317E3000A12031388200A166C
:1027E0000130F7000A12B4200A1678087F39EF008A
:1027F000FC000A1230220A167808B8000130F700EF
:102800000A12B4200A1678087F39EF00FC000A1279
:1028100030220A167808B700F7010A12B4200A1607
:1028200078083F39EF00FC000A1230220A167808B7
:10283000B6008316111511191B2C0A12831272216E
:102840000A168316091083120910831605128312C3
:1028500005168316111411182B2CD0308312031770
:10286000E3000A12031388200A160317E3010A1271
:10287000031388200A168316911491183D2CD13029
:1028800083120317E3000A12031388200A1601308B
:10289000F7000A12B4200A1678087F39EF00FC000E
:1028A0000A1230220A167808B8000130F7000A121E
:1028B000B4200A1678087F39EF00FC000A12302293
:1028C0000A167808B700F7010A12B4200A16780829
:1028D0003F39EF00FC000A1230220A167808B600D1
:1028E000831611151119722C0A128312432A0A1623
:1028F000353090008E010B308F00DC308E000000F0
:1029000083160C14C03083128B040A1267230A1634
:102910000A120E2C0A1642080A3C031DC12CC308D9
:10292000031DC12C0A1267230A16F808031DC12CC7
:102930000317D901DA010A120313DA210A16453006
:10294000E1007230E200E3006F30E4007230E50035
:102950002030E6007330E7006530E8006E30E900B3
:102960007330EA006F30EB007230EC002030ED0085
:10297000EE010317DA016130D9000A1203130922AC
:102980000A16C93084003508F2003408F100330813
:10299000F0003208EF000130F3000A1227250A1672
:1029A0003B308316A8000A12831203250A16C93089
:1029B00084003108F2003008F1002F08F0002E08E2
:1029C000EF000130F3000A1227250A163B30831668
:1029D000A8000A12831203250A163A08EF000130F4
:1029E000F0000A123E260A163A308316A8000A1290
:1029F000831203250A163B08EF000130F0000A128B
:102A00003E260A163A308316A8000A1283120325BE
:102A10000A163C08EF000730F0000A123E260A169C
:102A20003A308316A8000A12831203250A163608C4
:102A3000EF000130F0000A123E260A163A308316E3
:102A4000A8000A12831203250A163708EF00013086
:102A5000F0000A123E260A163A308316A8000A121F
:102A6000831203250A163808EF000130F0000A121D
:102A70003E260A160D308316A8000A12831203257B
:102A80000A160A308316A8000A12831203250A16B2
:102A9000C008031DEF2D8316111411184D2DD030D1
:102AA00083120317E3000A12031388200A16031780
:102AB000E3010A12031388200A1683169114911851
:102AC0005F2DD13083120317E3000A12031388200D
:102AD0000A160130F7000A12B4200A1678087F3966
:102AE000EF00FC000A1230220A167808B800013004
:102AF000F7000A12B4200A1678087F39EF00FC00AC
:102B00000A1230220A167808B700F7010A12B42018
:102B10000A1678083F39EF00FC000A1230220A1624
:102B20007808B600831611151119942D1114111877
:102B3000972DD03083120317E3000A120313882065
:102B40000A1603300317E3000A12031388200A163B
:102B5000831611151119AA2D11141118AD2DD1308C
:102B600083120317E3000A12031388200A160130A8
:102B7000F7000A12B4200A167808EF00FC000A12C7
:102B800030220A167808B9000130F7000A12B42082
:102B90000A167808EF00FC000A1230220A1678089C
:102BA000BA000130F7000A12B4200A167808EF00C4
:102BB000FC000A1230220A167808BB00F7010A123C
:102BC000B4200A167808EF00FC000A1230220A1618
:102BD0007808BC00831611151119EC2D83120A1206
:0E2BE0008A15D6290A168A118928882C6300C6
:04400E00E22FFF3F5F
:00000001FF
;PIC16F887
;CRC=1848  CREATED="27-May-25 21:47"
